:02000002D0002C
:1040000000400D0034660D00000005000D000501A4
:0840100004019301000000000F
:1040180054610D0009480A49884208B505D0094A83
:10402800824202D0121A02F02CF80748074A0021EF
:10403800121A02F031F8014808BD00BF04E303205A
:10404800A0650D0070E3032070E30320F0E7032070
:1040580070B501F03BF8074C074BE41AA40800259B
:104068001E46A54204D056F8253098470135F8E792
:1040780070BD00BFA0650D0068650D0000F02EB88A
:1040880008B500F07BF8BDE8084000F0EDBF00F08F
:1040980025BB00F023BB00F029BB00F027BB00784C
:1040A800B0FA80F0400970470123037070470000A0
:1040B80037B505460C4601F0F9F80649064A002CC2
:1040C80008BF0C4600942B46012100F044FF03B0C2
:1040D80030BD00BF68610D006D610D00F8B501F0DD
:1040E800E5F84FF4165101F0D1F8002000F000F97E
:1040F8000025044647F22F560027002000F0F8F864
:10410800001B61EB05018F4208BF864207D301F00F
:10411800CDF801F0BFF810B900F0D0FAEDE701F0E2
:10412800C5F801F0B7F801F0C1F80D4B0D4A0121AF
:1041380000F011FF01F0BAF80B4900F0D3FE01219D
:10414800072001F0ABFD094A09490A4801F004FCBF
:10415800002209490748BDE8F84001F085BB00BFC7
:10416800C0610D007E610D008A610D00B9400D002F
:10417800A7610D0040E50320B6610D0038B5114D6B
:10418800114C00F0ADF82B68C01AB0F57A7F04D94D
:104198000123237000F0A4F82860237883B10B4C26
:1041A80023786BB10A4B1978002581F001010720AB
:1041B8001970257001F083FD01232370024B1D70D7
:1041C80038BD00BF78E3032075E3032004E3032030
:1041D80074E3032008B500F01BF80021012000F06B
:1041E800F7F900F07DF8014B186008BD78E303206B
:1041F80008B5024B1B689B68019308BD6802030061
:1042080008B5024B1B68DB68019308BD6802030010
:1042180008B5024B1B681B68019308BD2C020300FC
:1042280008B5024B1B689B68019308BD2C0203006C
:1042380008B5024B1B68DB68019308BD2C0203001C
:1042480008B5024B1B681B69019308BD2C020300CB
:1042580008B5024B1B68DB69019308BD30020300F7
:1042680008B5024B1B681B6A019308BD30020300A6
:1042780008B5024B1B681B69019308BD6C0203005B
:1042880008B5024B1B685B69019308BD6C0203000B
:1042980008B5024B1B689B69019308BD6C020300BB
:1042A80008B5024B1B685B6D019308BD6C020300E7
:1042B80008B5024B1B689B6D019308BD6C02030097
:1042C80008B5024B1B685B68019308BD1802030020
:1042D80008B5024B1B689B68019308BD18020300D0
:1042E80008B5024B1B685B69019308BD18020300FF
:1042F80008B5024B1B68DB6D019308BD180203006B
:1043080008B5024B1B685B68019308BD48020300AF
:1043180008B5024B1B689B68019308BD480203005F
:1043280008B5024B1B681B69019308BD48020300CE
:1043380008B5024B1B685B69019308BD480203007E
:1043480008B5024B1B681B6B019308BD48020300AC
:1043580008B5024B1B685B6C019308BD480203005B
:1043680008B5024B1B68DB6C019308BD48020300CB
:1043780008B5024B1B685B6D019308BD480203003A
:1043880008B5024B1B68DB6E019308BD48020300A9
:1043980008B5024B1B685B69019308BD6402030002
:1043A80008B5024B1B689B69019308BD64020300B2
:1043B80008B5024B1B681B6A019308BD6402030021
:1043C80008B5024B1B685B6A019308BD64020300D1
:1043D80008B5024B1B689B6A019308BD6402030081
:1043E80008B5024B1B681B68019308BD3C0203001B
:1043F80008B5024B1B68DB68019308BD3C0203004B
:1044080008B5024B1B681B69019308BD3C020300F9
:1044180008B5024B1B685B69019308BD3C020300A9
:1044280008B5024B1B689B69019308BD3C02030059
:1044380008B5024B1B68DB69019308BD3C02030009
:1044480008B5024B1B681B6A019308BD3C020300B8
:1044580008B5024B1B689B6A019308BD3C02030028
:1044680008B5024B1B681B6A019308BD28020300AC
:1044780008B5024B1B685B6A019308BD280203005C
:1044880008B5024B1B689B6A019308BD280203000C
:1044980008B5024B1B68DB6A019308BD28020300BC
:1044A80008B5024B1B681B6B019308BD280203006B
:1044B80008B5024B1B685B6B019308BD280203001B
:1044C80008B5024B1B681B6C019308BD280203004A
:1044D80008B5024B1B685B68019308BD38020300EE
:1044E80008B5024B1B689B69019308BD380203009D
:1044F80008B5024B1B68DB69019308BD380203004D
:1045080008B5024B1B68DB6A019308BD380203003B
:1045180008B5024B1B685B6B019308BD38020300AA
:1045280008B5024B1B689B6B019308BD380203005A
:1045380008B5024B1B681B68019308BD4C020300B9
:1045480008B5024B1B685B68019308BD4C02030069
:1045580008B5024B1B681B69019308BD4C02030098
:1045680008B5024B1B685B69019308BD4C02030048
:1045780008B5024B1B689B69019308BD4C020300F8
:1045880008B5024B1B68DB69019308BD4C020300A8
:1045980008B5024B1B681B6A019308BD4C02030057
:1045A80008B5024B1B689B6A019308BD4C020300C7
:1045B80008B5024B1B681B6D019308BD6002030020
:1045C80008B5024B1B685B68019308BD2002030015
:1045D80008B5024B1B68DB6A019308BD2002030083
:1045E80008B5034B1B68D3F88830019308BD000059
:1045F8002002030008B5034B1B68D3F894300193DD
:1046080008BD00002002030008B5034B1B68D3F85F
:10461800A430019308BD00002002030008B5024B36
:104628001B685B68019308BD4002030008B5024B94
:104638001B689B68019308BD4002030008B5024B44
:104648001B68DB68019308BD4002030008B5024BF4
:104658001B681B69019308BD4002030008B5024BA3
:104668001B685B69019308BD4002030008B5024B53
:104678001B689B69019308BD4002030008B5024B03
:104688001B68DB69019308BD4002030008B5024BB3
:104698001B681B6A019308BD4002030008B5024B62
:1046A8001B681B6B019308BD4002030008B5024B51
:1046B8001B685B6B019308BD4002030008B5024B01
:1046C8001B689B68019308BD4402030008B5024BB0
:1046D8001B68DB6B019308BD4402030008B5024B5D
:1046E8001B681B68019308BD1C02030008B5024B38
:1046F8001B685B68019308BD1C02030008B5024BE8
:104708001B685B6A019308BD1C02030008B5024BD5
:104718001B68DB6A019308BD1C02030000221146D6
:104728004068FFF7B3BF002211464068FFF7BEBFDD
:1047380000224068FFF7B2BF002281F00101406803
:10474800FFF79CBF00231A4619464068FFF78EBF43
:1047580000231A4619464068FFF780BF0022114619
:104768004068FFF773BF002211464068FFF75EBF3D
:10477800002202214068FFF761BF00231A46406803
:10478800FFF74CBF024B03225A60024A1A60704777
:104798007CE30320E4610D00704710B50446FFF781
:1047A8007AFC204610BD000070B5084B0360044633
:1047B80000250E4640F80C5FFFF7C2FD3046267113
:1047C800FFF746FDA560204670BD00BF18620D00CA
:1047D8000079FFF745BD0000044B00204FF6FF723B
:1047E800187058809A80FFF7EBBE00BF84E303205F
:1047F80010B40468246BA4465DF8044B6047036852
:104808009B6C1847808E7047028FC08E101A7047B5
:1048180013B502AB026803F8011DD46819460122DA
:10482800A04702B010BD10B503681B69044698473D
:1048380028B1E38EE26B591CE186D05C10BD4FF0C5
:10484800FF3010BD10B503681B690446984718B1BE
:10485800E38EE26BD05C10BD4FF0FF3010BD7047A7
:1048680010B403460846DC6BD98E1A8F0368521AB7
:10487800DB6821445DF8044B1847A0F11000FFF7EE
:10488800EFBFF0B503688DB01C265B6A04460F467F
:104898001546984701233246002105A8029301F0E6
:1048A800FBFB8DF8146038460A268DF81560FFF773
:1048B8008FFD1122ADF8160002213046FFF730FEB9
:1048C8000028606124DB0422009202AB40F6FF71ED
:1048D800FFF706FEE0B995B10390ADF8100003A903
:1048E800E8B2FFF7CDFC98B90623009341F20B021A
:1048F80003AB40F6FF716069FFF7F2FD40B91C2277
:1049080005A96069FFF7E4FD10B96564012004E0BA
:10491800236820465B6A984700200DB0F0BD10B5AB
:1049280004464069002801DBFFF7E2FD4FF0FF3342
:1049380063610023E386238710BD38B5C36B054642
:10494800C08E13B12C6C241A00E01C46944228BF78
:1049580014462246184401F094FBEB8E2344EB8660
:10496800204638BD70B503681B6904460E461546D7
:10497800984788B1236820461B699847E38EE16B06
:104988008542A8BF054619442A46304601F079FBFE
:10499800E38E2B44E38601E04FF0FF35284670BDD7
:1049A80070B50446054B44F8043B01F12005064662
:1049B8000FCD0FC42B682370304670BDA0630D0067
:1049C800F0B59446026889B0976A0A4A02921D1D9A
:1049D8008E4606460FCD03AC0FC42B682370BDF876
:1049E80038300093624602AB71463046B84709B08A
:1049F800F0BD00BFA0630D00F0B50368B0F836E065
:104A08009F6A0D4B89B000F12006044602930FCE31
:104A180003AD0FC533682B70A38E0093724602ABAB
:104A2800E16B2046B84723680546DB69204698476E
:104A3800284609B0F0BD00BFA0630D00F0B543786B
:104A4800022B8DB005460C46174601D1011D33E0F7
:104A58000A2B35D11122002101A801F01DFBAB68FA
:104A680043B9EB6833B94FF6FF702E69FFF7A0FC26
:104A780086421FD005F1080301AE05F1180E18682B
:104A88005968324603C2083373451646F7D10623E0
:104A980001A906A807AE8DF8143000F079FB0FCEF7
:104AA80004340FC43368237057B16888FFF788FC53
:104AB800388005E005F11401204600F09EFBF3E77D
:104AC8000DB0F0BD2DE9F0418EB00EAB00250646C5
:104AD8001746084643F8345D2A462946FFF790FBF7
:104AE80000281FDB019BFBB15B69EBB102A800F05A
:104AF80041FB019B2A46586902A9FFF79FFF02A8BC
:104B080000F058FB80B1336803ADD3F838800B4B05
:104B180008930FCD09AC0FC42B6823703A4608A937
:104B28003046C047044601E04FF0FF340198FFF7D4
:104B38005FFB20460EB0BDE8F08100BFA0630D000A
:104B48002DE9F047D0F81480B8F1000F8CB0054675
:104B58000C461746994600DB11B94FF0FF3035E097
:104B68004FF01C0A05AE52460021304601F094FA77
:104B7800CDF808A0B9F1000F14D04FF47A72B9FB40
:104B8800F2F1039102FB11914A4308230492009326
:104B980041F2060203AB40F6FF714046FFF7A0FC66
:104BA80008B113E0082002AB0193214603460096A2
:104BB8003A466869FFF7A4FC041E06DB05F13402D7
:104BC80005F11C013046FFF739FF20460CB0BDE85F
:104BD800F08738B5054614462B7D062B084611D1BB
:104BE8001C2313700A235370FFF7F2FB083424F8D0
:104BF800060C2B1D143553F8042B44F8042BAB4238
:104C0800F9D138BD042B0AD1102313700223537035
:104C1800FFF7DEFB60806868FFF7CAFB606038BD9D
:104C28002DE9F0438BB003AC1C25994606460F4688
:104C3800904600212A46204601F02EFA2246BDF869
:104C480048104846FFF7C5FF9DF80D3043B18DE881
:104C580030000023424639467069FFF759FC01E0ED
:104C68004FF0FF300BB0BDE8F083F0B591B00C46C3
:104C780006460021154609A81C221F4601F00CFA19
:104C880009AA00212046FFF7A4FF9DF82530022B32
:104C98002ED1002305930A9B0493DDB102A928466F
:104CA800FFF7F6FAB0B910A941F8340D0298FFF7EA
:104CB800F7FA60B9039B53B1DA6812685178022990
:104CC80003D152680AB1059201E01B68F3E7039823
:104CD800FFF7EEFA002F4FF00803009318BF0322E6
:104CE80004AB08BF042200213046FFF7F9FB1EE0A1
:104CF8000A2B1AD104AC14220021204601F0CCF969
:104D08000BAB0FCB002F84E80F004FF01403009378
:104D180018BF0C22234608BF0D22292130460895CA
:104D2800FFF7DEFB00EAE07001E04FF0FF3011B062
:104D3800F0BD000038B54FF47A7383600B4B03F174
:104D480008026C33002503614FF0FF3304464560C9
:104D5800026043611C3000F00DFA4FF40073E586E1
:104D68002587E56323646564204638BD20620D000D
:104D780010B590F8483004461BB1C06B08B1FFF776
:104D88008AF90023E36384F848302364E3862387A1
:104D980010BD70B5044616460D46FFF7E9FF00231F
:104DA800E66323643EB935B12846FFF772F901235B
:104DB800E06384F84830E36B03B12564206C00306D
:104DC80018BF012070BDF8B51746C26B05460C46E2
:104DD8001AB9016C09B1FFF7DCFF04340FCC05F1F7
:104DE80020060FC6236833700023AF86EB862B8717
:104DF800286CF8BD70B5C26B04461AB9016C09B1CC
:104E0800FFF7C7FFE16B0023E386238741B1226CDC
:104E180032B12068056B2046A8470028C8BF208704
:104E2800236820461B69BDE87040184710B5074B3A
:104E380003F108026C33044602600361FFF76FFD5B
:104E48002046FFF795FF204610BD00BF20620D00E9
:104E580010B50446FFF7EAFF2046FFF71CF9204685
:104E680010BD02464069002804DB012392F8442063
:104E7800FFF7FBBE4FF0FF307047F8B506460D460A
:104E88008F180024BD420CD0336815F8011B9B68AD
:104E980030469847002801DB0444F3E7002C08BF9C
:104EA80004462046F8BD70B505460C46084649B18B
:104EB80001F022F92B68024621462846DB68BDE846
:104EC8007040184770BD03689B68184738B50D21B6
:104ED8000546FFF7F8FF0A2104462846FFF7F3FFC7
:104EE800204438BD38B50546FFF7DDFF044628469F
:104EF800FFF7ECFF204438BD30B58BB00B460021DE
:104F08008DF82410012A98BF0A220DF12304B3FB5F
:104F1800F2F505FB123303F0FF03092B94BF30337E
:104F28003733DBB2214604F801392B46002DEED188
:104F3800FFF7B9FF0BB030BD10B42AB903685DF8AC
:104F4800044B9B68C9B21847D2B25DF8044BFFF70F
:104F5800D3BFFFF7F1BF0CB42DE9F04387B000AF22
:104F680007F13804054654F8049B3C600E46234676
:104F78004A461421381DFFF7C1FB132805D8391DEF
:104F88002846FFF790FF044613E000F1080323F0DA
:104F98000703E846ADEB030D411C23464A46684625
:104FA8003C60FFF7ABFB69462846FFF77CFF0446E9
:104FB800C5461EB12846FFF789FF044420461C3722
:104FC800BD46BDE8F04302B070470000014B024AFD
:104FD8001A6070478CE3032045630D00024B1A6882
:104FE800024B1A60704700BF08E3032090E30320D8
:104FF80010B58368044613B103220146984720463A
:1050080010BD10B50446FFF7F3FF204610BD0000A1
:105018000348044A04490023836000F0ABBE00BF84
:1050280094E3032070E303200B500D0008B50C4BEC
:1050380033B100F03BF903681B699847002809DC85
:10504800084B63B100F0F0F903681B699847002822
:1050580003DC08BDAFF30080F2E7AFF3008008BDC2
:10506800000000000000000008B5FFF7DFFFFFF7B1
:1050780037F9014B186008BD30E7032007B5002356
:1050880000931A466FF07701FFF7B4FA03B05DF8A2
:1050980004FB000007B543880A2B08D0502B09D120
:1050A800094B1B683BB103B05DF804EB1847FFF7E9
:1050B800E5FF06E0002300931A466FF07701FFF73B
:1050C80099FA03B05DF804FBA4E3032010B5FFF7D9
:1050D800F7F8044600F0E8FF074B13B12046AFF39A
:1050E800008000210448FFF7F1FA00210348BDE8D9
:1050F8001040FFF775BA00BF000000009D500D007A
:10510800704710B50446FEF7C6FF204610BDF0B53F
:10511800037D062B8DB00E4600F104074FF0000406
:1051280002D000F1080518E00CAD394605F8304DFD
:105138002F232A460A20FFF72BF9284600F0DCFF28
:1051480033680246DB682946304698470FE024B1A9
:105158002E213046FFF7B7FE044415F8011D0A2238
:105168003046FFF7F6FEBD420444F0D120460DB0AC
:10517800F0BD000010B5054B0446112240F8043B71
:10518800002100F089FF204610BD00BFA0630D007C
:105198000346074A10B543F8042B01F1100251F8F1
:1051A800044B43F8044B9142F9D10A781A7010BDA8
:1051B800A0630D00037D042B01D1406808E0062B95
:1051C8000AD1436853B1836843B1C36833B10069F6
:1051D800003018BF012070470020704718467047FC
:1051E80010B59DF8084044EA032343EA024242EA24
:1051F800016104234160037510BD37B50D788B78C4
:105208004A78C97800912946FFF7EAFF03B030BD14
:105218004174704770470021007CFFF7A9B901214C
:10522800007CFFF7A5B9007CFFF79AB9007CFFF76F
:105238008FB938B50446007C0D46FFF791F9002870
:1052480001DC607C20B12946207CFFF799F9012018
:1052580038BD007CFFF79CB910B50446FEF71BFF6C
:10526800204610BD10B50446002363604FF47A73DE
:10527800A360054B2360012308462174637411461B
:10528800FFF756F9204610BDB4630D000022007CDC
:10529800FFF756B9007CFFF783B910B5142204460E
:1052A800002100F0F9FE204610BD000030B50E4D7B
:1052B80087B001A8FFF7F1FF296811F0010410D1A8
:1052C8002846FEF7ECFE60B101AA21460748FFF721
:1052D800C9FF2846FEF7E8FE054A0649034800F0DC
:1052E80049FD024807B030BDA8E30320ACE3032022
:1052F80070E303201D520D00002211464068FFF79D
:10530800A5B9002211464068FFF7C0B9002211462E
:105318004068FFF7CBB900224068FFF7BFB9002209
:1053280081F001014068FFF7A9B900231A46194620
:105338004068FFF79BB900231A4619464068FFF7F3
:105348008DB9002211464068FFF770B9002202218A
:105358004068FFF773B900231A464068FFF75EB943
:1053680038B50C4D282422460021284600F094FE2A
:105378004FF0FF336B602C80074D042328466B6089
:10538800064B40F8083B2246002100F085FE2C81A0
:1053980038BD00BFF0E30320C0E30320E4630D0041
:1053A800704741747047007CFFF752B8007CFFF7E4
:1053B80027B8007CFFF734B8007CFFF729B8007CD9
:1053C800FFF736B810B50446FEF765FE204610BD57
:1053D80070B5457C04460E4625B9007CFFF738F8C1
:1053E800002805DD3146207CBDE87040FFF700B895
:1053F800284670BD10B50446084611460022626072
:105408004FF47A72A260054A226001222074627405
:105418001A46FEF7E5FF204610BD00BF18640D00D0
:10542800007CFFF70DB8000038B50C4D296811F065
:10543800010411D12846FEF732FE68B1084A094B2B
:1054480009482146FFF7D6FF2846FEF72DFE074AF2
:105458000749054800F08EFC034838BDB0E4032036
:10546800B4E403202CE4032018E4032070E30320B1
:10547800A9530D007047F8B5064615460C468F1817
:10548800BC4206D0336814F8011B9B683046984725
:10549800F6E72846F8BD0022007CFEF7E1BF0021B0
:1054A800007CFEF7E5BF0021007CFEF7E9BF002184
:1054B800007CFEF7EDBF0021007CFEF7F1BF10B5C0
:1054C8000446FEF7E8FD204610BD000010B504466E
:1054D8004FF47A730846A3600021044B207461607E
:1054E8002360FEF7EDFF204610BD00BF48640D00A5
:1054F8000021007CFEF7DCBF10B5836804460BB1C1
:10550800C06806E0406828B183680BB900F051FC18
:10551800C3689847012323740020BDE81040FEF7B4
:105528002FBF002211464068FFF7B0B8002211468D
:105538004068FFF7BBB800224068FFF7AFB8002209
:1055480081F001014068FFF799B800231A4619460F
:105558004068FFF78BB800231A4619464068FFF7E2
:105568007DB8002211464068FFF770B80022114646
:105578004068FFF75BB8002202214068FFF75EB879
:1055880000231A464068FFF749B810B103685B6802
:105598001847704738B504460068D0B1FEF7B8FE22
:1055A800B8B9237C1BB9206808B1FEF7B9FE656855
:1055B80055B1AB681BB103222946284698472846AF
:1055C800FEF769FD002363602068FEF7B1FE002343
:1055D800236038BD38B50B4B03600446D0F8CC01C6
:1055E80008B1FEF75AFDD4F8C4512DB12846FFF78B
:1055F800D1FF2846FEF74FFDA06808B1FFF7C5FFA9
:10560800204638BD70640D000068FEF7A9BE2DE97C
:10561800F84F0B9F9DF828B00646884691469A4653
:1056280004460025236C4B4529D1636C534526D18C
:1056380094F848305B4522D14021404600F079FD7E
:1056480041460246204600F05FFDC0B96FB10C210B
:10565800384600F06EFD024638B1582303FB05605A
:105668003946493000F050FD04E0582000FB05653C
:1056780095F84900B0FA80F04009BDE8F88F013587
:10568800052D04F15804CDD10020BDE8F88F0000A5
:105698002DE9F04F85B007469DF838A00F9E01967A
:1056A800CDF800A0894602920393FFF7B0FF0028C7
:1056B8003CD10446582303FB0475D5F84080B8F163
:1056C800000F2ED14021484600F033FD494683465D
:1056D8000246284600F0D5FCCBF14002414605EBD6
:1056E8000B0000F0D9FC029B2B64039B6B6485F8CC
:1056F80049802EB10C21304600F01BFD054600E024
:1057080035465820444338193C442A4631464930E6
:10571800254400F0B6FC002085F8490084F848A02C
:1057280005E00134052CC6D1024800E0002005B090
:10573800BDE8F08FFCFEFFFF07B50023019300933F
:10574800FFF7A6FF03B05DF804FB2DE9F34104461B
:1057580008460D46904600F0CFFC04F5DC76074677
:10576800236CABB14021204600F0E3FC874202469F
:105778000BD32946204600F075FC30B9009043460B
:105788002A4621465820FEF73FFF5834B442E7D155
:1057980002B0BDE8F081000030B58DB0044611229A
:1057A800002101A800F078FC062301AA09498DF818
:1057B80014300A20FEF7F4FD07AD01A906A8FFF78B
:1057C800E7FC0FCD04340FC42B68237000200DB004
:1057D80030BD00BF9C640D0030B5044689B000F5AB
:1057E800E070FFF711FF236883BB4C20FEF74FFCE6
:1057F800054608B1FFF79EFA2068256008B1FFF753
:10580800C4FE206820B300224FF49A61FFF7C1FA62
:1058180008A9002501F8195D1148FEF729FD20683F
:105828009DF80720036849F269011B6A984702A896
:10583800FFF7A0FC02A8FFF7AFFF002804DB02A9CE
:105848002068FFF70EFB04E0054602E0002500E0B3
:10585800044DD4F8C001FEF78BFD284609B030BDD1
:10586800A9640D00FCFEFFFF2DE9F04705468CB04A
:1058780016460F4609B10B780BB9354C64E008465B
:1058880000F03AFC8046002E5CD0304600F034FC34
:10589800441C08F102032344B3F59A6F4FD805F569
:1058A800E070FFF7B1FE2846FFF796FF002840DBBF
:1058B8006846FFF75FFC6846FFF76EFF002838DB95
:1058C800D5F800A0DAF800300DF1040CD3F83890C0
:1058D800204B0693BCE80F000DF11C0EAEE80F003C
:1058E800DCF800308EF8003049F2690206A950460B
:1058F800C84700281DDB002328688DF81830036886
:105908000122DB6806A998472868036808F10102A4
:10591800DB68394698472CB1286803682246DB685B
:1059280031469847286803681B6C984700EAE0747A
:1059380000E00446D5F8C001FEF71AFD04E06FF058
:10594800BD0401E03446A4E720460CB0BDE8F0876A
:10595800F2FEFFFFA0630D002DE9F341044600F5B8
:10596800E0700F469046FFF74FFED4F8BC61FEB9D1
:105978001A49142000F00EFA054670B1184B8360DE
:105988004FF4406306604660C460067403220193C6
:105998000090144B1449FEF7B3FCD4F8BC61C4F86A
:1059A800BC512EB13046FFF7F5FD3046FEF773FBCC
:1059B8002046FFF711FF002807DB42463946201D25
:1059C800FFF7BAFE00EAE07500E00546D4F8C0012A
:1059D800FEF7CEFC284602B0BDE8F08100650D0058
:1059E800055B0D0001550D00AD640D002DE9F0417A
:1059F800054600F5E0768AB03046FFF705FE2C68CC
:105A0800D5F8C001FEF7B4FC002C63D0D5F8C4313A
:105A180063B12368D5F8C4111F6B20464FF47A731D
:105A28004FF49A62B847041E13DC56E02D494FF430
:105A38009A6000F0ADF9D5F8C431C5F8C40113B1C6
:105A48001846FEF72AFBD5F8C431002BE1D12648C9
:105A580044E02023254A029300920023019402AADD
:105A6800234903930120FEF7A3FDD5F8C4315F1C39
:105A78001B786BBB013C2146384600F05AFB38B313
:105A8800241A002C07EB000822DD3B5C03BB013C19
:105A98000ED008F101082146404600F04AFB241ABE
:105AA800002C15DD18F8003093B9012C02D00FE056
:105AB800DFF844803046FFF7A7FD42463946281DE7
:105AC800FFF743FED5F8C001FEF752FC002005E0C1
:105AD800084803E06420FEF7FBFB20460AB0BDE857
:105AE800F08100BF00650D00FCFEFFFFBC640D00E7
:105AF800B5640D00E8FEFFFFA6620D0008B5044678
:105B08002046FFF773FFFBE738B50D4C0D4B2360BC
:105B18000025022304F5E4706360A560C4F8C4514D
:105B2800C4F8C851FEF714FC074BC4F8CC512360E5
:105B38002046064A0649BDE8384000F01BB900BFB8
:105B480038E50320D4640D0070640D0070E3032071
:105B5800DD550D0000231A464068FEF75FBD0022A0
:105B680002214068FEF76ABD002211464068FEF730
:105B78005DBD002211464068FEF768BD00231A4645
:105B880019464068FEF76ABD00231A461946406860
:105B9800FEF76CBD002281F001014068FEF76EBD82
:105BA80000224068FEF77ABD002211464068FEF7E1
:105BB8007DBD002211464068FEF768BD70B58CB007
:105BC80014460646FFF7D6FA0CAB0022114643F8F6
:105BD800302D2046FEF714FB014658BB009B4BB303
:105BE8005A68022A0ED00A2A24D15C69112201A817
:105BF80000F052FA06238DF8143001AD04F10803C1
:105C0800183405E0596930460431FFF7F6FA11E017
:105C1800186859682A4603C20833A3421546F7D1C3
:105C280001A906A807ADFFF7B3FA0FCD341D0FC4BD
:105C38002B6823700098FEF7DBFA30460CB070BD75
:105C4800024B034A1A6000225A60704708E7032093
:105C5800D4640D0010B504460F48FEF7B9FD28B10D
:105C6800A4F10B03022B01D8002010BD00F062F84C
:105C7800FFF73EFC08B1012CF6D9FFF7D5FBFFF77B
:105C8800CFFB18B1A4F10903012BEDD9232C8CBF4C
:105C98000020012010BD00BF10E70320232838B5DD
:105CA80004460D460AD8FF2908D0FFF7D3FF28B1CC
:105CB80029462046BDE83840FEF7B2BA38BD38B5A7
:105CC80004460D46FEF7B4FAFF2810D0062804D87B
:105CD8004D2323FA00F0C30709D42046FFF7BAFF83
:105CE80028B129462046BDE83840FEF7A9BA38BD94
:105CF80070B50C4C0C4E0D4D00212046FEF754FD9E
:105D080020460B4C3246294600F034F80121204643
:105D1800FEF74AFD324629462046BDE8704000F0AD
:105D280029B800BF10E7032070E30320A1470D0046
:105D380020E7032038B50B4D296811F001040FD175
:105D48002846FEF7ACF958B121460748FFF7BEFBD5
:105D58002846FEF7A9F9054A0549034800F00AF85C
:105D6800014838BD34E7032038E7032070E30320F7
:105D78007D540D000B460146184600F065B9000039
:105D8800024B1868BFF35F8F704700BF4CE70320D2
:105D980000F000B810B5002814BF044601242046BE
:105DA800FEF79CFC20B9FFF7EBFF08B18047F6E748
:105DB80010BD08B5FEF7AAFC184B1A68D1075CBFDE
:105DC80001221A60164B1A68D2075CBF01221A60BA
:105DD800144B1A68D0075CBF01221A60124B1A686C
:105DE800D1075CBF01221A60104B1A68D2075CBF4A
:105DF80001221A600E4B1A68D0075CBF01221A6094
:105E08000C4B1A68D1075CBF01221A600A4B1A684A
:105E1800D2075CBF01221A60704700BF6CE70320FD
:105E280068E7032064E7032060E703205CE70320BA
:105E380058E7032054E7032050E70320244B1A684F
:105E4800D0075CBF01221A60224B1A68D1075CBFD9
:105E580001221A60204B1A68D2075CBF01221A601F
:105E68001E4B1A68D0075CBF01221A601C4B1A68C7
:105E7800D1075CBF01221A601A4B1A68D2075CBFAF
:105E880001221A60184B1A68D0075CBF01221A60F9
:105E9800164B1A68D1075CBF01221A60144B1A68A6
:105EA800D2075CBF01221A60124B1A68D0075CBF88
:105EB80001221A60104B1A68D1075CBF01221A60D0
:105EC8000E4B1A68D2075CBF01221A60704700BFE8
:105ED8009CE7032098E7032094E7032090E703203A
:105EE8008CE7032088E7032084E7032080E703206A
:105EF8007CE7032078E7032074E7032070E703209A
:105F0800244B1A68D0075CBF01221A60224B1A681A
:105F1800D1075CBF01221A60204B1A68D2075CBF08
:105F280001221A601E4B1A68D0075CBF01221A6052
:105F38001C4B1A68D1075CBF01221A601A4B1A68F9
:105F4800D2075CBF01221A60184B1A68D0075CBFE1
:105F580001221A60164B1A68D1075CBF01221A6029
:105F6800144B1A68D2075CBF01221A60124B1A68D8
:105F7800D0075CBF01221A60104B1A68D1075CBFBA
:105F880001221A600E4B1A68D2075CBF01221A6000
:105F9800704700BFCCE70320C8E70320C4E703200D
:105FA800C0E70320BCE70320B8E70320B4E70320D9
:105FB800B0E70320ACE70320A8E70320A4E7032009
:105FC800A0E70320184B1A68D1075CBF01221A60AA
:105FD800164B1A68D2075CBF01221A60144B1A6864
:105FE800D0075CBF01221A60124B1A68D1075CBF48
:105FF80001221A60104B1A68D2075CBF01221A608E
:106008000E4B1A68D0075CBF01221A600C4B1A6845
:10601800D1075CBF01221A600A4B1A68D2075CBF1D
:1060280001221A60704700BFECE70320E8E703206D
:10603800E4E70320E0E70320DCE70320D8E70320B8
:10604800D4E70320D0E7032010B5054C13462CB144
:106058000A4601460220AFF3008010BD204610BD5D
:106068000000000010B501390244904207D010F832
:10607800013B11F8014FA342F7D0181B10BD0020B7
:1060880010BD10B5431E0A44914204D011F8014BCB
:1060980003F8014FF8E710BD02440346934202D0CB
:1060A80003F8011BFAE7704738B5124B1C68A36B5D
:1060B8000546D3B91820FEF711FB43F20E33A0634F
:1060C80003804AF6CD33438041F2342383804EF275
:1060D8006D63C3804DF6EC630381052343810B2375
:1060E800838101220023C0E90423A36B00221D61E0
:1060F8005A6138BD6CE30320034613F8012B002ACC
:10610800FBD1181A0138704730B582B1451E0139E4
:1061180015F8013F11F8014FA34206D1EC4314448E
:10612800E04201D0002BF3D11C46181B30BD1046AD
:1061380030BD10B5034601448B4204D01A785C1C6C
:106148000AB12346F8E7181A10BD00001D400D00DB
:1061580059400D0085400D0089400D0000000000E9
:106168004E554C4C006576656E743D257320646110
:1061780074613D25730056657273696F6E3A202508
:10618800730059617264204D6F6E69746F72206973
:106198006E697469616C697A65642E2E2E2E0052C0
:1061A800656369657665645F4E6F6465730047452E
:1061B800545F4E6F646573004D4553485F594152B3
:1061C800445F4D4F4E49544F525F76302E302E313A
:1061D80000000000000000000000000083470D00E0
:1061E80079470D006F470D0065470D0059470D00B1
:1061F8004D470D0041470D0039470D002F470D0051
:1062080025470D00C55B0D000000000000000000E0
:10621800A1470D00A3470D0000000000000000008A
:10622800354E0D00594E0D0019480D0043490D001B
:1062380011480D002F480D004D480D0067480D000E
:106248008B480D0027490D00294C0D00C9490D0048
:10625800494B0D00F9470D00CF4D0D00CD4A0D00FB
:10626800014A0D00FD4D0D006D490D0007480D0058
:10627800A9490D000D480D0069480D00F0FFFFFF0A
:106288000000000083480D0066006C6E00666E001A
:10629800636F64650064657461696C000D0A0025AC
:1062A8003031307520005D20002C200028293A204C
:1062B80000205B00636F6465203D20002569006451
:1062C800657461696C73203D2000626175640053D8
:1062D800657269616C0053657269616C310074792B
:1062E800706500706172616D00636D6400696400BF
:1062F800686E64007374726D0066696C74006C7605
:106308006C0061646448616E646C65720072656DEE
:106318006F766548616E646C657200656E756D4870
:10632800616E646C657273004A534F4E53747265A4
:10633800616D4C6F6748616E646C65720061707066
:10634800006E6F6E6500747261636500696E666FDA
:10635800007761726E006572726F720070616E69AB
:106368006300616C6C005A00252B3033643A253089
:1063780032750025592D256D2D25645425483A255B
:106388004D3A2553257A0061736374696D65000081
:10639800000000000000000017510D0009510D0019
:1063A8000B510D0000000000000000001D520D0000
:1063B80061520D003B520D00834E0D0035520D0009
:1063C8001F520D0027520D005B520D002F520D0079
:1063D80019520D0000000000000000005F530D007E
:1063E80055530D004B530D0001530D003F530D0045
:1063F80033530D0027530D001F530D0015530D0087
:106408000B530D00C55B0D000000000000000000EC
:10641800A9530D00CD530D00D9530D00834E0D0027
:10642800B5530D00C1530D00BB530D00C7530D00EC
:10643800AB530D00AF530D0000000000000000003A
:106448007D540D00C7540D009F540D007F540D005E
:10645800A7540D00AF540D00B7540D00BF540D00E4
:10646800000000000000000089550D007F550D0058
:1064780075550D006B550D005F550D0053550D00FA
:1064880047550D003F550D0035550D002B550D0096
:10649800C55B0D00666630333A3A313A31303031F7
:1064A80000746831006D6573687075620077697291
:1064B800696E67007061727365207061636B6574E3
:1064C8002025640000000000000000005D5B0D0056
:1064D800675B0D00715B0D007B5B0D00855B0D003C
:1064E800915B0D009D5B0D00A95B0D00B15B0D007C
:1064F800BB5B0D00C55B0D00000000000000000044
:106508000000000000000000000000000000000083
:106518000000000000000000000000000000000073
:106528000000000000000000000000000000000063
:106538000000000000000000000000000000000053
:106548000000000000000000000000000000000043
:1065580000000000000000000000000043000000F0
:10656800DD410D008D470D00E1470D00D54F0D00B1
:10657800E54F0D0019500D0069530D00115B0D001A
:10658800495C0D00F95C0D00C15D0D00455E0D0014
:08659800095F0D00CD5F0D004D
:1065A000010000008F630D000000000004650D0075
:1065B00024650D0044650D0000000000000000008F
:1065C000000000000000000064650D0000000000F5
:1065D00000000000000000000000000000000000BB
:1065E00000000000000000000000000000000000AB
:1065F000000000000000000000000000000000009B
:0C66000000000000000000000CE303207C
:10660C00FFFFFFFF00000102030405060708090A4B
:10661C000B0C0D0E0F101112131415161718191A46
:08662C001B1C1D1E1F2028008D
:04663400785634124E
:04000003D0004018D1
:00000001FF
